:020000040800F2
:10000000E80F002025030008255100085948000882
:1000100021510008391600087D5800080000000032
:100020000000000000000000000000002D5100084A
:100030005516000800000000295100083151000841
:100040003F0300083F0300083F0300083F03000888
:100050003F0300083F0300083F0300083F03000878
:100060003F0300083F0300083F0300083D16000857
:10007000491600083F0300083F0300083F0300083B
:100080003F0300083F0300083F0300083F03000848
:100090003F0300083F0300083F0300083F03000838
:1000A0003F0300083F0300083F0300083F03000828
:1000B0003F0300083F0300083F0300083F03000818
:1000C0003F0300083F0300083F0300083F03000808
:1000D0003F0300083F0300083F0300083F030008F8
:1000E0003F0300083F0300083F0300083F030008E8
:1000F0003F0300083F0300083F0300083F030008D8
:100100003F0300083F0300083F0300083F030008C7
:100110003F0300083F0300083F0300083F030008B7
:100120003F0300083F0300083F0300083F030008A7
:100130003F0300083F0300083F0300083F03000897
:100140003F0300083F0300083F0300083F03000887
:100150003F0300083F0300083F0300083F03000877
:100160003F0300083F0300083F0300083F03000867
:100170003F0300083F0300083F0300083F03000857
:100180003F0300083F0300083F0300083F03000847
:100190003F030008000000003F0300083F03000881
:1001A0003F0300083F0300083F0300083F03000827
:1001B0003F0300083F0300083F0300083F03000817
:1001C0003F0300083F0300083F0300083F03000807
:1001D0003F0300083F03000800F002F800F092F827
:1001E0000AA090E8000C82448344AAF10107DA4592
:1001F00001D100F087F8AFF2090EBAE80F0013F052
:10020000010F18BFFB1A43F001031847C06100003B
:10021000E0610000103A24BF78C878C1FAD85207CC
:1002200024BF30C830C144BF04680C607047000070
:100230000023002400250026103A28BF78C1FBD8EF
:10024000520728BF30C148BF0B6070476E2900F0CD
:10025000E781702900F02B83662905F0FE87652968
:1002600005F0FB87672905F0F887612905F0F78716
:1002700003681B0A28BF41F08001692900F09481BE
:10028000642900F09181752900F08E816F2900F0BA
:10029000B982782900F0F782E92900F05382E42935
:1002A00000F05082F52900F04D82EF2900F0B6826F
:1002B000F82900F0F6820368DB0928BF41F08001CD
:1002C000632900F0F787732900F0FC87E32901F028
:1002D0000780F32901F00C80002070471FB505F05E
:1002E000AFFF01F05FF804000020002105F092FF4D
:1002F000401C60600020002105F076FFE0601FBD1B
:1003000010B510BD01F020F81146FFF7E7FF05F02A
:10031000B7FA01F0FDF803B4FFF7F2FF03BC01F0F8
:1003200041F900000948804709480047FEE7FEE719
:10033000FEE7FEE7FEE7FEE7FEE7FEE7FEE7FEE795
:1003400004480549054A064B70470000355100082E
:10035000D9010008E8030020E80F0020E80700208A
:10036000E807002053EA020C00F069802DE9F04B09
:100370004FF00006002B1FBFB3FA83F503FA05F414
:1003800024FA05F65E4012BF1643B2FA82F502FA6D
:1003900005F4C5F120051EBF22FA05FC44EA0C0451
:1003A000203556EA044C4FEA144418BF641C4FF041
:1003B00000084FF00009904271EB030C39D300297B
:1003C00019BFB1FA81F701FA07F6B0FA80F700FA1F
:1003D00007F6C7F120071EBF20FA07FC46EA0C0605
:1003E0002037B6FBF4FCA7EB0507103F07F01F0B07
:1003F000CBF120062CFA06F60CFA0BFB44BFB346F1
:100400000026202FA4BF5E464FF0000B5BEA060CCF
:1004100008BF4FF0010B19EB0B0948EB0608ABFBCB
:10042000027C06FB02CC0BFB03CCC01B71EB0C0166
:10043000C1E70B46024641464846BDE8F08B13B57E
:10044000084318BF4FF0FF300146AFF30080BDE80E
:100450001C4070477CB51D4616460C00009007D026
:100460004142A14202D32044401E01E04FF0FF3040
:10047000064B7B442A4669460190304600F0E9F875
:10048000002C02D0009A002111707CBD03020000F4
:100490004FF0000200B5134694469646203922BF1D
:1004A000A0E80C50A0E80C50B1F12001BFF4F7AF68
:1004B000090728BFA0E80C5048BF0CC05DF804EB4A
:1004C000890028BF40F8042B08BF704748BF20F8B8
:1004D000022B11F0804F18BF00F8012B70477047B6
:1004E0007047704770B5044685690068C10601D53C
:1004F000302600E02026C00707D070BDD4E90121D6
:1005000030469047206A401C20626D1EF6D570BDB3
:1005100070B5044685690078C00707D170BDD4E97D
:10052000012120209047206A401C20626D1EF6D5D4
:1005300070BD09684A0501D540B27047C905FCD5B0
:1005400000B2704709684A0501D5C0B27047C905B5
:10055000FCD580B2704770B50C460546012A05D01F
:100560002878800600D5EA69002302E0012305E02F
:100570005B1C934202D2E05C0028F9D1A869E6181E
:10058000C01AA861286A184428622846FFF7AAFF03
:1005900004E0D5E9012114F8010B9047B442F8D3E7
:1005A0002846FFF7B5FF70BD2DE9F041064600244F
:1005B00010687529314616A510D0FFF7BAFF00283C
:1005C00002DA404213A507E031688A0701D512A577
:1005D00002E0490704D511A5012401E0FFF7B2FFAD
:1005E00000210A2206F1240709E0B0FBF2FCB0FB6F
:1005F000F2F302FB1C00303078541846491C0028E6
:10060000F3D123462A463046BDE8F04100F063BAF4
:10061000000000002D0000002B0000002000000062
:1006200011680268006A530501D508700AE0D30515
:1006300001D5088006E0130603D5C217C1E9000200
:1006400000E008600120704701694A1C02610878D7
:10065000704700B58FB0CDE9013100210591054902
:100660007944CDE903101146684600F02BF90FB02C
:1006700000BD0000E5FFFFFFD1E900239A4202D24E
:10068000531C0B60107070472DE9FF5F15468A46BA
:100690000446DFF8AC80F8440027D8E900103E4655
:1006A000CDE9001010E03AF816106A4602A800F0F2
:1006B00023FE411C07D02178890603D5E269391849
:1006C00091420DD80744761C2078800602D5E06957
:1006D000B84205DDAE42E6DB3AF816000028E2D16A
:1006E000A069C01BA0612046FFF7FCFED8E90010FE
:1006F000CDE90010002017E03AF818106A4602A869
:1007000000F0FAFDB0F1FF3F81460BD000250DF15E
:10071000080B05E0D4E901211BF8050090476D1C8A
:100720004D45F7D308F10100B0428046E4DB206A72
:10073000384420622046FFF7EBFEBDE8FF9F000033
:10074000CA5B00002DE9F0418046D21D22F007026D
:100750000025D2E90002F52915A614D0011E72F178
:10076000000106DA0023D0EB030063EB020211A6BE
:1007700008E0D8F800108B0701D50FA602E0490762
:1007800001D50EA601251146002408F1240704E036
:1007900000F05CF930323A55641C50EA0102F7D19E
:1007A0002B46324621464046BDE8F04100F093B961
:1007B000000000002D0000002B00000020000000C1
:1007C00030B4002100F1240408E002F00705D2084B
:1007D000303542EA4372DB086554491C52EA03058E
:1007E000F3D10468002310A2250708D504F02004E3
:1007F0000C4304D0C46901230CA2641EC46130BC44
:1008000000F069B910B5044621461068FFF79AFE5A
:1008100002462046BDE810400023D1E7D21D22F059
:100820000701D1E90023CBE7000000003000000001
:10083000F0B40D460188090502D5214C7C4402E044
:100840001F4C7C440E34002100F1240608E002F025
:100850000F071209E75D42EA03721B097754491C2E
:1008600052EA0307F3D102780023120704D5702D52
:1008700006D009B1022311342246F0BC00F02BB996
:1008800001231034F8E770B504460D462146106880
:10089000FFF758FE024629462046BDE87040002377
:1008A000C6E7D21D22F00703D3E90023C0E703689F
:1008B000126843F0200303600823C3610023B7E7F5
:1008C0002C5A00002DE9F05F894604464FF0000ADB
:1008D000DFF874B1FB44C0F820A02046E1688847E7
:1008E000002874D0252806D0D4E901219047206A39
:1008F000401C2062F1E700265F462046E1688847F9
:100900002028054607DB312D05D2781910F8200C78
:1009100008B10643F1E7B00701D526F00406C4F894
:100920001CA00027C4F818A02A2D09D0284605F0DD
:1009300053FC38B304EB8708303DC8F8185019E071
:1009400059F8041B204604EB87029161E16888474F
:10095000012F054618D1E069002820DA26F020068C
:100960001DE0D8F8180000EB800005EB400030389F
:10097000C8F818002046E1688847054605F02CFCB9
:100980000028EED1012F0AD02E2D08D12046E16893
:1009900088477F1C0546022F46F02006C4DBA0696D
:1009A000002803DA404246F00106A061F00701D0BA
:1009B00026F010066C2D0BD0682D09D04C2D39D0A7
:1009C0006A2D35D0742D35D07A2D33D016E038E02D
:1009D000E1682F4620468847B842054609D16C2F6A
:1009E00026D04FF48060E1680643204688470546DC
:1009F00004E06C2F1AD04FF4807006430DB3A5F1BC
:100A00004100192802D8203546F400664A46294696
:100A1000204626604E46FFF719FC80B101280BD016
:100A2000F61D26F0070000F1080956E74020E4E72C
:100A30008020D8E70020D6E706F104094DE72846D4
:100A400052E7206ABDE8F09FBC59000030B5B0F114
:100A50000A0271F100034FEA900E4EEA817EB0EB7C
:100A60000E0061EB91014FEA101E4EEA017E10EB81
:100A70000E0041EB11114FEA102E4EEA016E10EB01
:100A80000E0041EB11214FEA104E4EEA014E10EBE1
:100A90000E0041EB1141401841F100014FEAD00036
:100AA00040EA41704FEAD1014FEA810444EA907470
:100AB00010EB800544EB01046D1944EB0404521B58
:100AC000A3414FF0000348BF0A3200D530BD401C9F
:100AD00041F1000130BD2DE9F0470D46994692469F
:100AE000044600F124080168880604D5E06921F075
:100AF0001001216000E00120A84201DD471B00E059
:100B00000027A1697A1902EB0900081AA061207870
:100B1000C00602D42046FFF7E5FC002608E0D4E931
:100B200001211AF806009047206A401C761C2062BA
:100B30004E45F4DB2078C0060AD52046FFF7D2FCEC
:100B400006E0D4E9012130209047206A401C206251
:100B5000381EA7F10107F4DC07E0D4E9012118F8F9
:100B600005009047206A401C2062281EA5F101055F
:100B7000F3DC2046FFF7CCFC2078000602D50220EB
:100B8000BDE8F0870120FBE72DE9FF4F0C461E462C
:100B90004FF0FF378BB0D2E90001DDF860800A909A
:100BA0008A46C1F30A5505B93D46002108464FF073
:100BB0000000BAF1000F00F4400005DA00EB8000FD
:100BC0004FF4400101EA50004FEA9059B9F1010F8A
:100BD00000DDB9460A9850EA4A000ED044F610509B
:100BE000A5F2FF3545432F14B8F1000F1ED0754212
:100BF000291E1EDDC9F100021CE0B8F1010F4FF003
:100C0000000001D0302103E0F24305E02154401CF4
:100C1000B042FBDB30460022002121540B99C1F881
:100C20000880C1E900200FB0BDE8F08FBD1B6D1C2E
:100C3000DEE74A4600DA694206A800F0F7FB06AB99
:100C400093E8070003AB83E8070050460A9904F0D5
:100C5000E3FE8DE80700A0F500501F3800900398D0
:100C6000002D0ADD42F21F014A460844002303A971
:100C70000390684605F04CF909E0A0F500504A469B
:100C80001F38002303A90390684605F056F98DE844
:100C900007000004000C03D04FF0FF30410800E0D3
:100CA0001046B8F1000F03D00022009215461EE056
:100CB000751E05D4FFF7CAFE303262556D1EF9D598
:100CC000B3460122084302D000227F1C04E02078B2
:100CD000302801D100227F1E002A099784D01DE010
:100CE000112D07DAFFF7B2FE303262556D1C50EA63
:100CF0000102F5D1084302D00098C8B10EE00021EE
:100D0000681E05E0235C625C63542254401E491C4B
:100D10008142F7DBAB46A81B401E0990002004F877
:100D20000B000B98099AC0F80880C0E9002B7AE7FD
:100D300011264FF0000857E72DE9F04F884604468A
:100D4000D21D22F0070191B0D1E90001CDE90A01DD
:100D500005F02AFA02460B98C00F01D02D2007E0BB
:100D60002068810701D52B2002E0202101EAC00084
:100D7000032A099001D0072A05DB03464146204695
:100D800000F014FB0BE12078800601D5E06900E05B
:100D90000620B8F1650F814606D0B8F1660F18D06D
:100DA000B8F1670F70D131E00020B9F1110F009058
:100DB00001DB112301E009F101030AAA01A90CA832
:100DC000FFF7E2FEDDE90C70002609F1010583461C
:100DD00047E001204B4600904FF000470AAA01A9C6
:100DE0000CA8FFF7D1FEDDE90DB00C995D46002699
:100DF00010B909F101000D18B9EB050003D4C0F1D9
:100E0000FF3609F10105A5EB09002BE0B9F1010F4F
:100E100001DA4FF001090020B9F1110F00904846A6
:100E200001DD112300E003460AAA01A90CA8FFF77F
:100E3000ABFEDDE90C704D460026834620780007A6
:100E40000AD4AB4500DA5D4601A8012D04DD411945
:100E500011F8011C302907D04F4502DA17F1040FB1
:100E600004DA012082460FE06D1EEEE7002F02DC5F
:100E7000ED1B3E4403E0781CA84200DD7D1CB81B3E
:100E800000F1010A4FF000472078000703D4AA457B
:100E900001DB4FF0FF3A0021B7F1004F0DF143089D
:100EA0008DF8431024D002202B23002F01DA7F423B
:100EB0002D230A21021EA0F1010000DC5FB197FB87
:100EC000F1FC97FBF1F201FB1C7C17460CF1300C96
:100ED00008F801CDEEE7A8F10100037021880905AB
:100EE00001D5452100E06521A0F1010800F8011CB1
:100EF00009980FA9A1EB0807FF1D00B101204119B6
:100F000001EBEA70A1693844081A401EA0612078FC
:100F1000C00602D42046FFF7E5FA099828B1D4E9C3
:100F200001219047206A401C20622078C00622D50B
:100F30002046FFF7D7FA1EE0002E04DBB34502DDA2
:100F400001A8805D00E03020D4E901219047206AAB
:100F5000401C2062761CAAF101005FEA000A0AD157
:100F600000F020FAC0680168405CD4E90121904794
:100F7000206A401C2062281EA5F10105DCDC07E088
:100F8000D4E9012118F8010B9047206A401C206227
:100F9000381EA7F10107F3DC2046FFF7B9FA03205A
:100FA00011B041E62DE9F04F04460D46D21D22F066
:100FB000070089B0D0E900974846394605F0F4F8B3
:100FC0000246F80F01D02D2307E02068810701D5E4
:100FD0002B2302E0202101EAC0038DF820300BB161
:100FE000012000E00020032A824601D0072A04DB0A
:100FF0002946204600F0DAF93FE12078800601D446
:101000000D2500E0E569C7F30A560D2D49DA0021E8
:101010004FEA175B08464FF00000002F00F4400035
:1010200007DA00EB80004FF4400100EBD07001EADA
:1010300060008115012901DD4FF0FF3100224FEAE8
:10104000850CBCF1180F06D31346ACF118004FF015
:101050008052C24003E04FF4801323FA0CF30CF1EA
:101060000C0CBCF1200F04D3ACF1200C09FA0CF0ED
:1010700001E007FA0CF000294FF0004801DD18B933
:101080000FE00ED140450CD319EB02095F4121B9A5
:10109000404502D19F4329EA0209BBEB175F00D00C
:1010A000761C2088000502D57B48784402E07A4807
:1010B0007844193808AA302302F80A30037C0AF170
:1010C0000101002E0AF1020A53546A4602DC4FF075
:1010D000300101E04FF031014FF001088DF80010B0
:1010E00002D0A6F2FF3603E059EA470100D06B4E6A
:1010F000002D02DC2178090704D54FF002082E21CB
:101100008DF80110C44600210BE0C7F303433F01F3
:10111000C35C491C6D1E02F80830052908F101085E
:1011200001DA002DF1DC00210CE000EB1973491C01
:101130001B786D1E082902F808304FEA091908F1DA
:10114000010801DA002DF0DC21688B0602D516E0DB
:10115000A8F10108E04505DD02EB080313F8013CA6
:10116000302BF5D0B8F1000F09DD02EB080313F8BE
:10117000013C2E2B03D1090701D4A8F10108002D51
:1011800005DD3E2102F808106D1E08F10108407CC3
:10119000002E02F8080008F1010804DA2D2076423A
:1011A00002F8080002E02B2002F808000A214FF4A0
:1011B0007A70864208F101080BDB96FBF0F33033BE
:1011C00002F8083096FBF0F308F1010800FB136603
:1011D00001E0642E0CDB642096FBF0F3303302F860
:1011E000083096FBF0F308F1010800FB136601E0FC
:1011F0000A2E06DB96FBF1F0303002F8080008F109
:10120000010896FBF1F001FB1060303002F8080095
:10121000A16908F1010808EB050202EB0A00081AAF
:10122000A0612078C00602D42046FFF75BF9216A4E
:1012300008AE01EB0A00206204E0D4E9012116F8AF
:10124000010B9047BAF1010AF7D22078C00602D507
:101250002046FFF747F96E4609E016F8010B3E28D5
:101260000FD0D4E901219047206A401C2062B8F1D8
:101270000108F2D22046FFF74BF909B00320BDE880
:10128000F08F206A2844206203E0D4E90121302055
:1012900090476D1EEBD3F8E70A52000002FCFFFFF7
:1012A00010B5436913B1AFF3008001E0FFF753F9C4
:1012B000012010BD127800F124010A7000224A704A
:1012C0000122EDE711684FF0FF32E9E710B54369FD
:1012D00013B1AFF3008001E0FFF7D6F9012010BD94
:1012E000128800F1240182840022C2840122EDE7E9
:1012F00011684FF0FF32E9E72DE9F04116460C4640
:10130000054600F047F8036893F80101012807D06B
:10131000FF2C12D8185D80B101202C70BDE8F0813F
:10132000D3F807013246214603F20713C7182846AF
:10133000BC46BDE8F041002360474FF0FF30EDE7C9
:1013400000487047100000207546FFF7F9FFAE46D1
:1013500005006946534620F00700854618B020B5C1
:10136000FEF7EEFFBDE820404FF000064FF000070B
:101370004FF000084FF0000BAC46ACE8C009ACE8F9
:10138000C009ACE8C009ACE8C00921F007018D46EE
:101390007047000010B500F005F8001D10BD00BF3B
:1013A000754E000000487047300000202DE9F041E4
:1013B0001F46044603260168072A01F4006004DB87
:1013C00008B116A505E016A503E008B115A500E0D3
:1013D00015A521F010002060A069C01EA0610FB10A
:1013E000401EA0612046FFF77DF84FB1D4E90121EE
:1013F00038469047206A401C2062C01C206206E0EC
:10140000206AFAE7D4E9012115F8010B9047761E0E
:10141000F8D22046FFF77CF8BDE8F0814E414E003F
:101420006E616E00494E4600696E66002DE9F04718
:10143000814616468AB0354878440DC88DE80D00BF
:1014400032487844801C03AC0DC884E80D0041F696
:101450009B300844372190FBF1F290FBF1F5A5F1A8
:10146000800501FB12041B3C02D56442012000E010
:101470000020DFF898A080460027FA44AAF1BE0AAF
:101480000EE0E0070AD03246684607EB4701012329
:101490000AEB810104F051FD8DE8070064107F1C08
:1014A000002CEED1194F7F44AE3F19E0E80715D06C
:1014B00007EB04100DF1180A90E80E008AE80E0000
:1014C000C068F04201D1981908903246012306A95C
:1014D00003A804F032FD03AB83E807006D10641C21
:1014E000002DE3D14FF0010332466946B8F1000FF9
:1014F00003A802D004F00CFD01E004F01EFDC9E9D0
:101500000001C9F808200AB0BDE8F0870C4F0000C0
:1015100010B50446AFF300802046BDE81040FEF74A
:10152000FABE00000000000030B44FF0013C50F85B
:10153000042B51F8043BCCFA52F4D51A20D1FCB953
:1015400050F8042B51F8043BCCFA52F4D51A17D1B9
:10155000B4B950F8042B51F8043BCCFA52F4D51A24
:101560000ED16CB950F8042B51F8043BCCFA52F46C
:10157000D51A05D1002CDAD030BC4FF000007047EE
:1015800029BAB1FA81F111F01801D1F1200084409B
:10159000F2D1CA40CB4012F0FF0213F0FF0330BC7F
:1015A000D01A704701491820ABBEFEE726000200A2
:1015B000704700000146806AC36DC26D13F0500F82
:1015C00008D0D20648BF00F00BBB406D426B084606
:1015D000104700BF42F40071C16501680B68CA681A
:1015E0001B0703D4910707D500F0C6BA12F4406F69
:1015F000FAD1C9688904F7D4C16D21F48071C1653D
:10160000C16DC90448BF00F0B7BAC16D41F0010116
:10161000C16500F0B1BA0000806AC16D41F04001BF
:10162000C165016E41F00401016600F0D9BA000005
:10163000806A00F0D3BA0000FEE7000040F200101C
:10164000C2F2000000F0D8BE40F26010C2F200000A
:1016500000F0D2BE70470000EFF3108072B600BFFA
:10166000FEE7000070B582B090F85820012A03D13F
:101670000221084602B070BD002201920092026869
:1016800040F2080CC5F2000CB2F1A04F0CF1F805C5
:1016900008D040F20043C5F200039A423ED10CF557
:1016A0009F6300E02B469B68946823435B0735D417
:1016B0004FF4E063D1F800E0AA4208BF4FF4407352
:1016C000B2F1A04F08BF4FF440735CF80340BEF185
:1016D000000F24F460442DD04D6890F8386042F437
:1016E000807245EA46352C4340F20015C5F20005EC
:1016F000AA424CF8034037D1DCF80020DCF8004166
:101700002243D2073AD15CF8032040F61F7489685F
:10171000A243114341EA0E0122E000BFC16D41F036
:101720002001C1650121002280F85820084602B03E
:1017300070BD00BF42F4807140F20012C5F2000299
:1017400091424CF803401BD1DCF80010DCF800217A
:101750001143C9071ED15CF8031040F61F72914374
:101760004CF803100021DEE7DCF80044DCF80055FB
:10177000DCF800262C432243D207C4D00021D2E754
:10178000DCF80024DCF80065DCF800163243114375
:10179000C907E0D00021C6E7F0B581B00022009271
:1017A00090F85820012A03D10221084601B0F0BD6B
:1017B0000123076880F85830BB685B0736D4D1E94D
:1017C00000531F26C3F3012407EB8404226B03F0AC
:1017D0001F039E40B243C5F3846606FA03F31A431F
:1017E0002263BA68BB6802F0040203F00803D2184F
:1017F00040F0BD800A6807F114030426C2F3406478
:10180000D1F808E006EAD25C53F82440C2F304554C
:101810000722AA40BEF1004F24EA02040CD143F88B
:101820000C401A6842F000430EE000BFC16D41F069
:101830002001C165012199E10EFA05F2224343F826
:101840000C201A6822F000437B61D1E90435FC6862
:10185000042B5FD13A6E3A6E0B68C2F3846293FA3E
:10186000A3F6C3F3846C6FF3DF43B6FA86F5002B5F
:101870002C464FF6FF7E08BF6446A242C0F2070E18
:101880000CD13A6E22F000423A660A6802EA0E0370
:10189000C2F3846C92FAA2F2B2FA82F57A6E7A6E90
:1018A000002BC2F384622C4608BF6446A2420CD1CE
:1018B0007A6E22F000427A660A6802EA0E03C2F3E8
:1018C000846C92FAA2F2B2FA82F5BA6EBA6E002B6A
:1018D000C2F384622C4608BF6446A2420CD1BA6EA1
:1018E00022F00042BA660A6802EA0E03C2F3846C70
:1018F00092FAA2F2B2FA82F5FA6EFA6E002BC2F3F5
:10190000846208BF6546AA4231D1FA6E22F00042D5
:10191000FA662CE0062202EA940205FA02FC0E683E
:1019200007F1600555F823404FF20002C0F2FF3284
:1019300006F0F846224046EA0C06324342F00042E6
:1019400045F823200A698B6955F8226026F08076D5
:10195000334345F822300A690B7F55F82260012B8A
:1019600026F0007608BF06F1007645F82260BA68D6
:10197000D2074CD10D68CA6800262B46C4F27F06F8
:10198000B2426FF3DF4319D1D7F8B02042EA030225
:10199000C7F8B020C3B195FAA5F2B2FA82F20132CB
:1019A00002F01E03092B02F01F0316D801229A40F1
:1019B00003EB430342EA03531BE000BFD7F8B02018
:1019C0009A43C7F8B02022E0012202EB956202F0B0
:1019D0001E030A2B02F01F03E8D3012200269A40BF
:1019E00003EB4303CFF6206606EB03531A4342F0A2
:1019F0000073C3F3406607EB86068A687569C3F314
:101A0000045307249C40A5439A402A4372610B6803
:101A10000021C8F208010B4266D040F2003EC5F238
:101A2000000EAEF500710EF580648F4204BF40F2E7
:101A30000034C5F200042146B7F1A04F04BF40F2C4
:101A40000031C5F200018D680022CCF221329342B0
:101A500005F0E07C04D01022C9F2C002934245D1C7
:101A60002A0261D440F20062C5F20002974202D01D
:101A7000B7F1A04F5AD18A6822F0E07242EA0C0214
:101A800042F400028A6040F20C01C2F200010968CF
:101A900042F663528909C0F23E52A1FB021291093B
:101AA00001EB41010C2202EB810100910099002918
:101AB00048D00099013900910099002944D000993B
:101AC000013900910099002940D000990139009115
:101AD000009900293CD00099013900910099002912
:101AE0004FF00001E5D141E000213FE00022CCF2BF
:101AF0005272934208BF15F0807219D00021CCF6C3
:101B000084318B424FF0000108BF15F480022DD1C3
:101B1000B7F1A04F1FD040F20011C5F200018F4273
:101B200018D1002122E000BF00211FE000211DE0AC
:101B30008A6822F0E07242EA0C0242F080728A6007
:101B4000002113E0002111E000210FE000210DE051
:101B500000210BE0A646DEF8081021F0E07141EA12
:101B60000C0141F48001CEF808100021002280F819
:101B70005820084601B0F0BD0068B0F1A04F18BF72
:101B8000704740F2C011C2F2000140F2080009683B
:101B9000C2F2000090ED000A91ED251A40F27C009F
:101BA000B8EE411A20EE011ABDEEC11A81ED271AD6
:101BB00091ED451AC2F20000B8EE411A20EE010A7A
:101BC000BDEEC00A81ED470A038840F2EC00C2F284
:101BD00000000021002200F0C7BB00007047000099
:101BE00070470000B0B582B00446002001904CB1AF
:101BF000E06D58B121688868800012D48868C00000
:101C000019D54CE0012002B0B0BD00BF204600F065
:101C10002BF90020206684F858002168886880002D
:101C2000ECD588684FF6C072C5F6FF721040886028
:101C30008868C00033D44FF6C0728868C5F6FF725A
:101C400002F18052104000F18050886040F20C0098
:101C5000C2F20000006842F663528009C0F23E52B0
:101C6000A0FB02029009022202EB400001900198C1
:101C7000A8B100BF019801380190019878B101988E
:101C800001380190019850B10198013801900198F4
:101C900028B101980138019001980028EAD188689C
:101CA000C00009D4E06D40F01000E065206E40F007
:101CB00001002066012000E000208A68E36D02F048
:101CC000040203F01003D218E26D40F0858022F484
:101CD00081720232E2658A68D20729D140F200138C
:101CE00041F48072C5F2000340F2080C9A42C5F23A
:101CF000000C77D1DCF80030DCF800211A43D20761
:101D000016D10CF1F8024FF4E063D4F804E09142EC
:101D100008BF4FF44073B1F1A04F08BF4FF44073B8
:101D20005CF8032022F47C1242EA0E024CF80320F5
:101D3000627FE36B43EA4232D4E902C31A4394F868
:101D4000243042EA0C02012B42EA034207D1D4F8C4
:101D500028C00023CFF6FE7303EB4C431A43E36A1B
:101D600033B1D4F830C003F4787343EA0C031A4358
:101D7000D1F80CC044F20703CFF6F07303EA0C036A
:101D80001A43CA600A69636B22F040621A430A610F
:101D90008A688B6802F0040203F00803D21852D15B
:101DA00094F83820237F520042EA833CCB6844F207
:101DB000020223EA020242EA0C02CA6022690B69AB
:101DC000F2B143F480330B61D1F8C0C043F6FF7326
:101DD0002CEA03031A431BE042F010010120E165E5
:101DE00002B0B0BDDCF800E4DCF80025DCF8003619
:101DF00042EA0E021A43D2073FF483AF98E700BFCE
:101E000023F480320A61D1F8C02043F6FF739A436D
:101E1000C1F8C02094F840300A69012B10D140F27B
:101E2000FD7322EA030CD4E91132D4E913E543EA45
:101E30000C031A4342EA0E022A4342F0010201E077
:101E400022F001020A6162690B6B012A23F00F0282
:101E500002D1236A013B1A430A63E16D012262F356
:101E60000101E16502B0B0BD70B59CB00446002030
:101E7000CDE91A0002A804305021FEF709FB2068C2
:101E8000B0F1A04F02D01CB070BD00BF4FF40040B5
:101E900002904FF00050139002A801F07FFA002842
:101EA00018BFFFF7D9FB41F24C00C4F202000168F1
:101EB000002641F400510160016801F400510191D4
:101EC0000199016841F001010160006817A900F063
:101ED0000100019001980F201790032018904FF0F7
:101EE0009040199600F0FAFB40F200150820C2F26B
:101EF0000005C4F2020005214FF4807385E8430019
:101F000005F114004FF4806C4FF0200E80E808506B
:101F10004FF44050802228622846C5E9036200F051
:101F2000C1FA002818BFFFF797FB6565AC621CB0CB
:101F300070BD00002DE9F04740F200170368044629
:101F4000C5F200074FF4C160BB4208BF4FF40270F6
:101F5000B3F1A04F08BF4FF40270C0599E6892467B
:101F6000720704D40E4694F85810012902D10220B9
:101F7000BDE8F08707F5A06100F01F0501208B4246
:101F800084F8580018BF002D14D198684FF6C07817
:101F9000C007C7F6FF783DD1986808F17F01084275
:101FA00012D0E06D40F01000E065206E40F00100BE
:101FB000206603E0052DE8D0092DE6D0002084F846
:101FC00058000120BDE8F087986800EA080040F05A
:101FD0000100986000F05EFC23681968C90719D1F8
:101FE000814602E01868C00714D19868C00705D17F
:101FF000986800EA080040F00100986000F04AFC90
:10200000A0EB090023680328ECD31868C007E9D1C6
:10201000C7E700BFE06D40F60171884300F58070AE
:10202000BB42E06508D040F20050C5F20000834298
:1020300008D107F5407001E04FF0A040984218BF6A
:10204000002D03D1E06D20F48010E065E06D41F2D9
:10205000B552C0044FF0000044BF206E20F00600CF
:102060002066606D41F23167C0F60002C0F60007DD
:1020700041F219650021C0F60005C0E90B271C22BA
:1020800045631A6084F858105968324641F01001CF
:102090005960D96841F00101D96003F1400153460C
:1020A00000F096FA21688A6802EA080242F0040207
:1020B0008A60BDE8F08700002DE9F04104464079D0
:1020C00001284FF0020008BFBDE8F08188460121D9
:1020D00061712071D8F808001646042843D100F039
:1020E000D9FB0746BEB100BF2068406BB0F1FF3F8F
:1020F0001EDC00F0CFFBC01B0228F5D3206940F0A6
:102100000800206103202071BDE8F08100F0C2FBCF
:10211000C01B0228F2D22068406B0004F6D40120D4
:1021200000F0C8FAD8F824102068016407E000BF66
:10213000012000F0BFFAD8F8241020684164816CB7
:1021400006F0100240F2FF3393409943D8E90A3772
:10215000934019438164C16CFF239340994307FA6C
:1021600002F21143C164D8F81C102068012917D16C
:10217000816B06F010061F22D8F82030B240914340
:1021800003FA06F211438163D0F83CC0D8F8181066
:1021900001290DD002290FD14FF0010E12E000BF2E
:1021A00006F01006D0F83CC0D8F818100129F1D17B
:1021B0004FF0000E06E000BFD8F81410B1FA81F11C
:1021C0004FEA511ED8F80820D8F8143098F8045077
:1021D00040F2073742EA0E0207FA06F098F80510B7
:1021E00042EA0307012D08BF47F48077012908BFA1
:1021F00047F400776FF44042D8F8001050400229AD
:1022000000EA0C050AD101F0BFFB46F60101C0F659
:102210008911884204D345F4004509E00D4307E0E5
:102220004BF20041C0F2C441884288BF45F480456A
:1022300007FA06F120682943C1634FF48041026820
:10224000B14022EA01010160016840F6FE72B2402D
:102250009143D8E9032302FA06F739430160C0210C
:102260000768B14027EA01010160C2F3830103F06E
:102270003C0241EA8211026E40F60F73B3409A436A
:10228000B140114301660120207100206071BDE85A
:10229000F0810000002804BF0120704710B50446FB
:1022A000007920B900206071204600F007F8022074
:1022B0002071002001212061217110BDF0B587B08F
:1022C0000446006840F60001C5F20001002688427D
:1022D0000696059602D007B0F0BD00BF41F24C0053
:1022E000C4F202000168102741F4803101600168E6
:1022F00001F4803101910199016841F0010101600F
:10230000006802A900F00100019001980320CDE9C6
:1023100003064FF09040029700F0E0F940F260159C
:102320001C20C2F20005C4F2020006214FF48073A3
:1023300085E8830005F114004FF4806C4FF0200E07
:1023400080E808504FF44050802228622846C5E9B2
:10235000036200F0A7F8002818BFFFF77DF9A56019
:10236000AC6207B0F0BD000081B04FF0000CCDF8BA
:1023700000C0D0F800C00029DCF83C00CDF800C057
:102380000098104414BF14300830009000990020C9
:102390000B6001B07047000070B504464079012819
:1023A0004FF0020008BF70BD0D4601216171207120
:1023B000206805F010060268B14011430160012059
:1023C00000F078F92068016845B101F47812022123
:1023D00001FA06F39A4209D105E000BF01F03E017F
:1023E000022903D10121426811434160012020717B
:1023F0000020607170BD0000B0B5D0E910C3026864
:10240000DCF8001003F01F030424D2F800E09C4025
:102410000C4218BF1EF0040522D102249C400C423D
:1024200018BF1EF0020529D1D940090724D51EF096
:10243000080108BFB0BD116821F00E011160012133
:1024400001FA03F2CCF80420C16380F82510416B37
:10245000002280F8242079B1BDE8B040084700BFD1
:102460001168890603D4116821F004011160CCF8C9
:102470000440016B0029EFD1B0BD00BF116889068F
:1024800006D4116821F00A011160012180F825109D
:10249000CCF80440C16A0022002980F82420DBD156
:1024A000EAE7000000284FF0010100F08E802DE9DE
:1024B000F04740F2000CC4F2020C03684FF6F83209
:1024C0000CF5816ECBF6FD72734538BF02F5806264
:1024D0004CF6CD441A44CCF6CC44A2FB042803F0BD
:1024E000FC02A2F10802A2FB04290CF580656FF042
:1024F0000304D0E90262D0F810A03CBF0025C4F26A
:10250000020504EA9804C0E91054022580F8255019
:102510001D6847F6F07725EA07073A43476942EA1C
:102520000A0285693A43C7692A43056A3A432A433E
:1025300032431A600CF50262734538BF0CF5006235
:10254000A3180CF50862C264C9F3041240F6840CA7
:1025500001FA02F2B6F5804FC4F2020C8364026500
:1025600006D1002141601960CCF800201EE000BFB8
:1025700041685FFA81FE013903294FF00001C3F879
:1025800000E0CCF8002011D8AEF101020CEB82077C
:1025900047F87C1F02F01F01012202FA01F30CF13F
:1025A000BC023946CCF8C03002E000BF0022002354
:1025B00000F1540C8CE80E0000210122C16380F868
:1025C000252080F82410BDE8F04708467047000039
:1025D0002DE9F04190F824C0BCF1010F43D04FF039
:1025E000010C80F824C090F825C0BCF1010F37D150
:1025F0004FF0020C80F825C04FF0000CC0F83CC032
:10260000D0F800C000F14C0E9EE83040DCF80060CD
:10261000BEF1000F26F00106CCF8006065601CBF1B
:10262000D0E916456560D0E91076012506F01F0651
:102630008468B540D0F830807D60CCF804300B461B
:10264000102C04BF13460A46CCF80830CCF80C20F6
:10265000DCF80010B8F1000F08D041F00E010DE0D9
:10266000002180F824100220BDE8F08121F004014F
:10267000CCF80010DCF8001041F00A01CCF8001092
:10268000806C0168C90303D5016841F48071016061
:10269000BEF1000F05D0DEF8000040F48070CEF8E7
:1026A0000000DCF8000040F00100CCF80000002041
:1026B000BDE8F081B0B5044600F0ECF8054640F204
:1026C0000000C2F200004068611C18BF044400BF53
:1026D00000F0E0F8401BA042FAD3B0BD2DE9F04F66
:1026E00082B00D68002D00F0CB8041F2004400F173
:1026F0003847C4F6000406224FEAB726A04208BFB6
:102700000522052E38BF4FEAB722002401274FF0DB
:10271000000E0026009209E00D68013635FA06F237
:102720000EF1040E04F1020400F0AA8007FA06FB81
:1027300015EA0B08F0D0D1F804A003220AF0030C2C
:10274000ACF10105A240012D6FEA020910D88268A0
:10275000CD6802EA0902A5402A4382604268CAF3B2
:10276000001522EA0B02B5402A43426006E000BF92
:10277000BCF1030F02D14FF0030C21E0C2688D6859
:1027800002EA0902A5402A43BCF1020FC26017D138
:102790006FF0030202EA560202440EF01C030F25FA
:1027A000D2F820C005FA03FA0D692CEA0A0C05FAE2
:1027B00003F343EA0C031362D1F804A00AF0030CFC
:1027C00002680CFA04F302EA09021A431AF4403FC1
:1027D0000260A1D041F26003C4F202031A6840F221
:1027E000004942F001021A601A68C4F2010902F0BD
:1027F00001020192019A26F003024FF6084A4A4468
:10280000CFF6FF7A52F80AC00EF00C050F23009F96
:10281000AB402CEA030307FA05F52B4342F80A30D4
:10282000D9F808C04B684CEA0805DA0258BF2CEA10
:10283000080540F20C4CC9F80850C4F2010CDCF851
:1028400000209F0242EA080558BF22EA0805CCF89A
:102850000050D9F804209D0342EA080758BF22EA35
:102860000807C9F80470D9F80020DB0342EA08071A
:1028700058BF22EA0807C9F8007001274CE700BFDB
:1028800002B0BDE8F08F00001823002A08BF2823FB
:10289000C150704740F2E430C2F200000068704757
:1028A00090F8DC20012A4FF0020221D0012380F8A9
:1028B000DC3080F8DD2002684B1CD2F8CCC309D094
:1028C0004CF00203C2F8CC33D2F8CC3323F00C0323
:1028D000194301E02CF00201C2F8CC13D2F8CC135A
:1028E00041F00101C2F8CC130121002280F8DD1073
:1028F0001046704770B590F8DD30022B04BF0220FF
:1029000070BD90F8DC30012B4FF002033AD080F814
:10291000DD30D2E900C3D2E902E60CF4E0546FF3F3
:102920005F23156923440EF40074234405F48045A5
:102930002B4406F40046334456690025C0F2FF15C7
:1029400005EA06469569334405F00076156A334476
:1029500005F08046D2693343066802F0004206EB78
:10296000C1111A43D1F8B83042F20006C3F600464E
:1029700033401A43C1F8B8200121002380F8DD104C
:1029800080F8DC30184670BD002804BF0120704775
:1029900010B582B00446022084F8DD00207AC0071A
:1029A0004FF00000C4E93800C4E93A00C4E93C0033
:1029B000C4F8F8001FD0206846F60001C4F20101F7
:1029C00088420CD141F26001C4F202010A6842F06F
:1029D00080620A60096801F08061019101990168D3
:1029E000D4E9042321F4704102F44042114403F479
:1029F000405211440160204600F03EF8207A8007E2
:102A000006D52068E1680268090A61F309220260BC
:102A1000012084F8DD00002084F8DC00C4F8D80030
:102A2000C4E90600C4E90800A062C4E90C00C4E9D6
:102A30000E00C4E91000C4E91300C4E91500C4E99C
:102A40001700C4E91A00C4E91C00C4E91E00C4E967
:102A50002100C4E92300C4E92500C4E92800C4E931
:102A60002A00C4E92C00C4E92F00C4E93100C4E9FC
:102A7000330002B010BD000081B0006846F60001CE
:102A8000C4F20101884201D001B0704741F26000F8
:102A9000C4F20200016841F080610160006800F04A
:102AA00080600090009801B07047000070B50D463E
:102AB0000446FFF7EFFE2168D1F88823D2031FD424
:102AC00035B30646681C11D1D1F88803C00317D46A
:102AD000D1F88803C0035CBFD1F888035FEAC03037
:102AE0000ED4D1F88803C003EED509E0FFF7D2FE7B
:102AF000801BA8420ED82068D0F88803C003F5D503
:102B0000012084F8DD00002084F8DC0070BD00BFE7
:102B1000FFF7C0FE072084F8DD00032070BD000031
:102B200010B590F8DD30022B4FF002032ED080F864
:102B3000DD300368062911D11968D2E900CED2E947
:102B4000024221F01F0124F01804214311431960AF
:102B5000C3F814C0C3F818E014E000BF03EBC111C0
:102B6000D1F88030D2E900ECD2E9024223F01F0311
:102B700024F0180423431A43C1F88020C1F894E0DC
:102B8000C1F898C00121002380F8DD10184610BD5F
:102B900080B590F8DDC0BCF1020F04BF022080BDFB
:102BA00090F8DCC0BCF1010F4FF0020C00F09E80E9
:102BB0004FF0010E062980F8DCE080F8DDC00FD16F
:102BC000511E072926D80FF20602DFE801F0051F83
:102BD000232B2323232F00BF19680268D16128E02B
:102BE000A2F1010CBCF1070F46D80FF20602DFE894
:102BF0000CF00527434B4343435300BF02681B6857
:102C000002EBC111C1F89C3063E000BF1968026893
:102C100051620EE0072180F8DD10002180F8DC1001
:102C200007E000BF19680268916202E01968026853
:102C3000D16290F8DD10072904BF012080BD4EE06D
:102C4000026802EBC11CD3E9001ECCF8A410614657
:102C500051F8802FBEF1000F22F440520A6038D0A4
:102C60000A6842EA0E02BEF5405F0A602BD19968FD
:102C7000CCF8A8102DE000BF072180F8DD1000215E
:102C800080F8DC1025E000BF02681B6802EBC11170
:102C9000C1F8A8301DE000BF026802EBC11CD3E9F7
:102CA000001ECCF8AC10614651F8802FBEF1000F29
:102CB00022F440420A600CD00A6842EA8E02BEF555
:102CC000405F0A60D3D0BEF5005F02D19968CCF8AE
:102CD0009C1090F8DD10072904BF012080BD012160
:102CE0004FF0000C80F8DD1080F8DCC0604680BD3D
:102CF00090F8DC20012A4FF002020BD080F8DD2092
:102D000002681368194311600121002280F8DD1068
:102D100080F8DC2010467047B0B5044690F8DD001E
:102D2000022804BF0220B0BD94F8DC0001284FF057
:102D3000020008BFB0BD012584F8DC5084F8DD0036
:102D4000204601F00DFD002084F8DD5084F8DC0001
:102D5000B0BD000090F8DC20012A4FF002020DD037
:102D600080F8DD200268D2F894331943C2F8941336
:102D70000121002280F8DD1080F8DC201046704729
:102D80002DE9F04F8EB090F8DD30022B04D10223F4
:102D900018460EB0BDE8F08F90F8DC30012B4FF0F4
:102DA0000203F5D0012780F8DC7080F8DD30D0F820
:102DB0000090062940D1D9F80060D9F8A0C3556920
:102DC00026F0E00625F0C004202D46EA040609D0CE
:102DD0009569042D00F01A81032D00F01B81022D4E
:102DE00040F01C8146F020064FF2FF35C3F2FF157C
:102DF000D2E907472E4005F50065D2E9093E2C408F
:102E0000344327F06E452C4323F0684323432EF0D0
:102E10006047D2F82CB03B4343EA8B03576B23F057
:102E200000533B43176B2CF480352F43C9F8003017
:102E3000C9F8A073B5E000BF09EBC11CE6465EF817
:102E4000803F644623F07043CEF80030DEF8003057
:102E500054F8E85F23F020030B950D94644654F872
:102E6000E46F0C94D9F8A0535469202C44EA03076A
:102E700009D09469042C00F0D580032C00F0D68092
:102E8000022C40F0D78027F4D07303F12007D369D8
:102E9000D2E911A40093136AD2F82CB00193536ABB
:102EA0000493936A0593536B0693D2E90E830A93B6
:102EB000136C0993936D089344F48053B3F5F05F5A
:102EC000136D079326F480734AEA030A02D1B8F11E
:102ED000400F03D12AF4F05343EA040AD36C0529C6
:102EE0000393536D02930BD854A353F821302E460D
:102EF000156B4C1C334005FA04F444EA030600E069
:102F00002E464FF2FF33C0F2FF13009D07EA030481
:102F100003F500632B402343019C049DA4B223438B
:102F20004FF6BF74C0F2006425402B43059D04F1A9
:102F300000642C4023434FF6BF7443EA0B03CFF6E3
:102F400000642340069CB4F1005F4FF6FF74CFF697
:102F5000026408BF03F5003308EA04052B43089D0B
:102F600004F580242C402343079C2343CEF80030F3
:102F70004FF6C0730B9FC7F6FF733B400A9F07F0E5
:102F80003F073B44099F3B430D9F3B60039F2AF44F
:102F900080433B430C9F3B60029BCCF8D430C9F884
:102FA000A063C1EBC103D2E9007500EB8303D2E952
:102FB0000246C3E9087517690629C3E90A461F6373
:102FC0000AD846F26033C0F6000353F82130D9F82E
:102FD00084733B43C9F8843306290DD0BBF1000F3D
:102FE0000AD109EBC111D1F88030D26D23F40073FE
:102FF00043EA4222C1F880200121002380F8DD103D
:1030000080F8DC3018460EB0BDE8F08F46F0800640
:10301000EAE600BF46F04006E6E600BF26F0E0061E
:10302000E2E600BF022363F3C81730E7012363F32E
:10303000C8172CE727F4D07729E700BFFFFFFDFF73
:10304000FFFFFBFFFFFFF7FFFFFFEFFFFFFFDFFFCC
:10305000FFFFBFFF2DE9F04190F8DD30022B04BFE8
:103060000220BDE8F08190F8DC30012B4FF0020324
:103070003DD080F8DD30D0F800C04FF6EF740CEB97
:10308000C11E5EF8EC3FCFF6EC7492E8600123407D
:103090000134D76804EA0514234326F4403423435B
:1030A00027F4003495692343012D43EA080309D12D
:1030B000D2E9044223F0060324F0020423431A4316
:1030C00042F001030629CEF800300AD846F26032F9
:1030D000C0F6000252F82110DCF884231143CCF82A
:1030E00084130121002380F8DD1080F8DC301846BD
:1030F000BDE8F08140F2000040F2E431C2F200008D
:10310000C2F2000140680A6810440860704700007D
:1031100080B5032000F094F80F2000F009F8002893
:103120001CBF012080BD00F029F8002080BD0000F8
:1031300070B540F20006C2F200067168E1B10446C3
:1031400040F20C00C2F200004FF47A720068B2FB49
:10315000F1F1B0FBF1F000F0F3FE0F2C4FF00105A0
:1031600008D838B94FF0FF3021460022002500F082
:103170003BF83460284670BD012070BD80B582B038
:1031800041F25800C4F20200816841F001018160FF
:10319000816801F0010101910199016841F08051BC
:1031A0000160006800F080500090009800F0B6FECA
:1031B000022000F0BBFE02B0BDE8804000F0E4B8A1
:1031C000002848BF7047C1B200F01F00012202FA78
:1031D00000F04EF20012CEF2000242EAD10121F0DC
:1031E000030108607047000010B54EF60C5CCEF28B
:1031F000000CDCF80030C3F3022E8EF00704042C20
:1032000028BF0424BEF103034FF0FF3E0EFA04F47E
:1032100038BF0023A14399400EFA03F39A431143A8
:1032200000F00F0200F160430901043A03F5644322
:103230006244002848BF02F10C03197010BD000061
:103240004EF60C51CEF200010A684FF6FF031A4009
:1032500060F30A2242F0806040F0FD700860704721
:10326000B0F5007F42D0002840F0808047F2140083
:10327000C4F2000050F8141CC26E01F4C06122F4C4
:103280008072B1F5806FC2662ED150F8141C0122F5
:1032900062F34A2140F8141C40F20C01C2F2000112
:1032A0000968322251434DF68362C4F21B32A1FBFE
:1032B0000212910C0268520511D54A1C0FD0026807
:1032C00052050CD559B10268520508D5012906D01E
:1032D0000268520503D50229A1F10401EAD1006870
:1032E000400544BF032070470020704747F2140098
:1032F000C4F2000050F8141CC26E01F4C06142F424
:103300008072B1F5806FC266EED150F8141C0122B4
:1033100062F34A2140F8141C40F20C01C2F2000191
:103320000968322251434DF68362C4F21B32A1FB7D
:103330000212910C0268520511D54A1C0FD0026886
:1033400052050CD559B10268520508D5012906D09D
:103350000268520503D50229A1F10401EAD10068EF
:10336000400544BF03207047BEE700BF47F214008A
:10337000C4F2000050F8141C022262F34A2140F803
:10338000141C00207047000047F20800C4F200003F
:10339000016841F480410160704700002DE9F0416F
:1033A00082B00446807841F288060007C4F2020623
:1033B00002D400202FE000BF56F8300C10F08058E7
:1033C0000BD156F8300C40F0805046F8300C56F8CF
:1033D000300C00F080500190019847F20007C4F2D1
:1033E0000007386840F480703860FFF753FA0546EC
:1033F0003868C00500F10C81FFF74CFA401B022829
:10340000F6D90320B8F1000F05D156F8301C21F091
:10341000805146F8301C2168CA0717D18A071DD48D
:103420004A0723D40A0729D4CA062FD48A0635D4DA
:103430004A063BD40A0641D4CA0547D48A034DD470
:103440008A0553D44A0559D467E000BF32686368DF
:1034500022F003021A4332608A07E1D53268A3687A
:1034600022F00C021A4332604A07DBD53268E36867
:1034700022F030021A4332600A07D5D53268236938
:1034800022F0C0021A433260CA06CFD5326863699F
:1034900022F440721A4332608A06C9D53268A369A1
:1034A00022F440621A4332604A06C3D53268E369A7
:1034B00022F440521A4332600A06BDD53268236AAC
:1034C00022F440421A433260CA05B7D53268636AB3
:1034D00022F440321A4332608A03B1D57269A36A7A
:1034E00022F003021A4372618A05ABD53268E36A9F
:1034F00022F440221A4332604A050ED53268236B0B
:1035000022F440121A43B3F5801F326005D156F8F9
:103510007C2C42F4801246F87C2C0A050ED53268C9
:10352000636B22F440021A43B3F5800F326005D179
:1035300056F87C2C42F4801246F87C2CCA040ED536
:103540003268A36B22F040721A43B3F1807F32607D
:1035500005D156F87C2C42F4801246F87C2C8A0463
:103560000ED53268E36B22F040621A43B3F1006F6C
:10357000326005D156F87C2C42F4801246F87C2C3F
:103580004A040ED53268236C22F040621A43B3F12C
:10359000006F326005D156F87C2C42F4801246F858
:1035A0007C2C0A040ED53268636C22F040521A4318
:1035B000B3F1805F326005D156F87C2C42F4803242
:1035C00046F87C2CCA030ED53268A36C22F0404228
:1035D0001A43B3F1804F326005D156F87C2C42F487
:1035E000803246F87C2C49030ED57169E26C21F4D7
:1035F00040111143B2F5001F716105D156F87C1CD2
:1036000041F4801146F87C1C02B0BDE8F08100BF97
:10361000B06810F4407010D0216D88420BD0B068B3
:10362000B16820F4407041F48031B160B16821F498
:103630008031B160B060C0070CD1B068216D20F45A
:1036400040700843B0600020B8F1000F7FF4E3AE93
:10365000DBE600BFFFF71EF9054641F2883700BFE1
:10366000B0688007E9D4FFF715F9401BB842F7D9D5
:10367000C7E600002DE9F04700286DD042F2000AAD
:10368000C4F2020A0446DAF800000D4600F00F000A
:1036900088420CD2DAF8000020F00F002843CAF864
:1036A0000000DAF8000000F00F00A84254D12168B1
:1036B00041F20808C807C4F2020803D1880740F1A4
:1036C000D880BDE0606802283AD0032840D158F87D
:1036D000082C920140D5D8F80420D8F8043042F2E2
:1036E0000046C3F3031302F00302D8F80470013359
:1036F000C0F2F406032A04BF41F20026C0F27A06A3
:10370000B6FBF3F2D8F80430C7F306277A43C3F3C5
:103710004163022707EB4303B2FBF3F24BF2004392
:10372000C0F2C4439A4261D9D8F8002012F0F00FD9
:1037300051D089075AD5A168002957D14BE000BF65
:1037400058F8081C89035CBF0120BDE8F08707E03A
:1037500058F8081C490503D40120BDE8F08700BFD4
:10376000D8F8001001F00C0104293FD0D8F800105F
:1037700001F00C01082939D0D8F8001001F00C0133
:103780000C2933D1D8F80410D8F8042042F20047AD
:10379000C2F3031201F00301D8F804300132C0F281
:1037A000F407032904BF41F20027C0F27A07B7FBF0
:1037B000F2F1D8F80420C3F306235943C2F341625F
:1037C000022303EB4202B1FBF2F14BF20042C0F2E2
:1037D000C44291420AD9D8F80010082262F30711B6
:1037E0004FF00109C8F8001002E000BF4FF00009D7
:1037F000D8F8001021F003010843C8F80000FFF7D3
:1038000049F8064641F28837D8F80000616800F0B0
:103810000C00B0EB810F07D0FFF73CF8801BB842DB
:10382000F2D90320BDE8F0872168880708D4B9F1F0
:10383000000F1ED0D8F8000020F0F00017E000BF05
:10384000480705D5D8F8000040F4E060C8F800004B
:10385000080706D5D8F80000072262F30D20C8F843
:103860000000D8F80000A26820F0F0001043C8F86B
:103870000000DAF8000000F00F00A8421BD9DAF8C7
:10388000000020F00F002843CAF80000FFF702F8FC
:10389000064641F2883700BFDAF8000000F00F005A
:1038A000A84207D0FEF7F6FF801BB842F4D90320E8
:1038B000BDE8F0872168480707D5D8F80000E2681E
:1038C00020F4E0601043C8F80000080708D5D8F8D5
:1038D0000000216920F4605040EAC100C8F80000EF
:1038E000D8F8000042F20041C0F2F40100F00C00F0
:1038F000042808462DD0D8F8000000F00C00082855
:1039000041F20020C0F27A0023D0D8F8002002F063
:103910000C020C2A1CD1D8F80420D8F8043002F08C
:103920000302C3F30313D8F804700133032A08BF5A
:103930000146B1FBF3F0D8F80410C7F30627C1F332
:1039400041610222784302EB4101B0FBF1F000E05B
:103950000020D8F8001046F27C32C1F30311C0F603
:103960000002515C40F20C0201F01F0120FA01F14B
:1039700040F20000C2F200000068C2F200021160D2
:10398000BDE8F047FFF7D4BB40F20C00C2F20000E4
:103990000068704740F20C0041F20801C2F20000DA
:1039A000C4F202010068096846F28C32C1F30221B8
:1039B000C0F60002515C01F01F01C84070470000D2
:1039C00040F20C0041F20801C2F20000C4F2020110
:1039D0000068096846F28C32C1F3C221C0F60002C9
:1039E000515C01F01F01C8407047000080B541F2F2
:1039F0000C01C4F2020151F8040C42F20042C0F280
:103A0000F40200F00C000428104608BF80BD51F8F5
:103A1000040C00F00C00082841F20020C0F27A00EB
:103A200022D051F8043C03F00C030C2B1CBF0020E7
:103A300080BDD1F800C00B680CF0030CC3F3031E6B
:103A40000B680EF1010EBCF1030F08BF02460968B6
:103A5000B2FBFEF0C3F30623C1F3416102225843D7
:103A600002EB4101B0FBF1F080BD00002DE9F04117
:103A700082B0002800F006810446007841F200067A
:103A8000C007C4F2020655D12078800774D420788C
:103A9000000700F197802078400700F1B780207878
:103AA000800600F10781E069002840D0B16801F08C
:103AB0000C010C2940F05681012800F0E380F068E9
:103AC000216A00F003028A4240F0DC80626A6FF0F3
:103AD0000F0300F0F00103EB0212914240F0D2809C
:103AE000A16A00F4FE42B2EB012F40F0CB80E16A04
:103AF00000F07842B2EBC16F40F0C480226B00232B
:103B0000CFF6E07303EA025200F4C001A2F50012FE
:103B1000914240F0B780616B4FF07E4202EA016152
:103B200000F0C06001F17E41884240F0AB8000208F
:103B3000F1E100BFB06800F00C01F06808295BD02B
:103B4000032281F00C0122EA00000844B0FA80F060
:103B5000400951D16068B0F5803F07D0B0F5A02F83
:103B600040F0D680306840F480203060306840F407
:103B700080303060D7E000BFB068F16800F00C0022
:103B8000042869D001F0030180F00C0081F00201EB
:103B90000844B0FA80F040095ED1E168306800293D
:103BA00000F0CE8040F480703060FEF773FE054672
:103BB0003068400500F1EC80FEF76CFE401B0228E7
:103BC000F6D920E16169D6F89400002900F08C80D4
:103BD00040F00100C6F89400FEF75CFE054600BF09
:103BE000D6F8940080073FF556AFFEF753FE401B12
:103BF0000228F5D907E100BF306880037FF544AFA4
:103C0000606800287FF440AF3CE000BFB06D10F06A
:103C1000805808D1B06D40F08050B065B06D00F0B4
:103C200080500190019847F20007C4F200073868FD
:103C3000C0052BD4386840F480703860FEF72AFE47
:103C4000054600BF3868C00520D4FEF723FE401BA0
:103C50000228F7D9D7E000BF3068400501D5E068F9
:103C600080B17068216920F0FE4040EA0160706018
:103C700040F20000C2F200000068FFF759FA002885
:103C80003FF405AF012002B0BDE8F081A068012833
:103C900008D0052840F09A80D6F8900040F0040043
:103CA000C6F89000D6F8900040F00100C6F89000E9
:103CB0009AE000BFA169D6F89800002970D040F0C2
:103CC0000100C6F89800FEF7E5FD0546D6F8980015
:103CD00080073FF5E8AEFEF7DDFD401B02284FF000
:103CE0000300F3D917E100BF20F00100C6F89400EB
:103CF000FEF7D0FD054600BFD6F8940080077FF59B
:103D0000CAAEFEF7C7FD401B0228F5D97BE000BF15
:103D10003168002821F480313160316821F480213C
:103D2000316000F08F80FEF7B5FD054630688003F6
:103D30003FF5AAAEFEF7AEFD401B6428F6D962E05F
:103D400020F480703060FEF7A5FD05463068400520
:103D50007FF59DAEFEF79EFD401B02284FF003004D
:103D6000F4D9D8E03168022821F0807131604FD158
:103D7000FEF790FD054600BF3068800140F18E805F
:103D8000FEF788FD401B02284FF00300F4D9C2E083
:103D90007068216920F0FE4040EA0160706076E6BC
:103DA00020F00100C6F89800FEF774FD054600BF3C
:103DB000D6F8980080077FF576AEFEF76BFD401BC6
:103DC00002284FF00300F3D9A5E000BFD6F8901009
:103DD000002821F00101C6F89010D6F8901021F0CB
:103DE0000401C6F890103DD0FEF754FD054641F29F
:103DF000883700BFD6F89000800745D4FEF74AFD0B
:103E0000401BB842F6D9032002B0BDE8F08100BFE4
:103E1000F0684FF6FF7120F00300F060F068CFF615
:103E2000EE610840F060FEF735FD04463068800121
:103E30007FF57DAEFEF72EFD001B02284FF003003C
:103E4000F4D968E0FEF726FD054600BF3068800320
:103E50007FF51AAEFEF71EFD401B64284FF00300ED
:103E6000F4D958E0FEF716FD054641F2883700BF49
:103E7000D6F89000800707D5FEF70CFD401BB8422E
:103E80004FF00300F4D946E0B8F1000F7FF407AE1D
:103E9000B06D20F08050B06501E600BFF06848F2D8
:103EA0000C01C0F29F1104F1200700EA010C8ECF33
:103EB0006FF00F00D4E90C5400EB02100022CFF693
:103EC000E07241EA0C0102EA05520843A2F5001231
:103ED0004FF07E4540EA032005EA0465104305F1F2
:103EE0007E4540EAC7602843F060306840F080704B
:103EF0003060F06840F08070F060FEF7CBFC044664
:103F0000306880013FF513AEFEF7C4FC001B0228A9
:103F10004FF00300F4D902B0BDE8F0813020C4F2C4
:103F20000100016821F00101016070473021C4F2F5
:103F300001010A6822F00202104308607047000085
:103F4000411E0020B0EB116F1CBF012070474EF2E4
:103F50001002CEF2000251604EF62351CEF2000163
:103F6000F0230B70072190601160704770B590F8D6
:103F70003C20012A4FF0020265D080F83D20026803
:103F800042F600435468D2F808C0C4F2010345F277
:103F9000000E9A42C4F2010E18BF72452CD14D6832
:103FA00024F470042C434FF68F75CFF6FF550E683E
:103FB0002C4042F6FF35C4F201053443AA42546056
:103FC0000EDC40F2FF73C4F200039A421CDCB2F133
:103FD000804F2DD040F20043C4F2000326E000BF22
:103FE00043F6FF74C4F20104A24219DC9A421FD0C6
:103FF00043F2004318E000BF43F20045C4F201055C
:10400000AA42CCD0CFE700BF40F60003C4F20003C1
:104010009A420DD040F60043C4F2000306E000BF10
:10402000724505D044F20003C4F201039A4204D160
:1040300089682CF08003194391600121002280F8E7
:104040003D1080F83C20104670BD0000002804BFE1
:104050000120704710B5044690F83D0028B90020B3
:1040600084F83C00204600F023F8022084F83D004C
:104070002068211D01F068F8012084F8480084F8C8
:104080003E0084F83F0084F8400084F8410084F842
:10409000420084F8430084F8440084F8450084F822
:1040A000460084F8470084F83D00002010BD000061
:1040B00082B0006841F20001C4F20001884215D0CC
:1040C00040F20041C4F2000188421CD141F2580084
:1040D000C4F20200016841F002010160006800F0D2
:1040E00002000190019802B0704700BF41F25800F1
:1040F000C4F20200016841F010010160006800F0A4
:1041000010000090009802B07047000090F83D1039
:1041100001291CBF01207047022180F83D10016871
:1041200042F6FF30C4F2010081420DDC40F2FF7024
:10413000C4F20000814217DCB1F1804F2CD040F274
:104140000040C4F2000025E043F6FF70C4F2010015
:10415000814215DC42F60040C4F2010081421BD0CE
:1041600043F2004014E000BF40F60000C4F200003B
:10417000814211D040F60040C4F200000AE000BFC6
:1041800045F20000C4F20100814205D044F2000073
:10419000C4F2010081420CD188680722C0F20102FA
:1041A0000240062A4FF0000008D0B2F5803F08BF59
:1041B0007047086840F00100086000207047000068
:1041C00080B590F83C20012A4FF0020200F0988060
:1041D00080F83D20D0F800C08822DCF80830CFF607
:1041E000CE721A40CCF808200B68B3F5005F0DDAE8
:1041F0003F2B21DD5F2B33DD602B00F08380702BA4
:1042000000F0A280B3F5805F73D0E7E02F22C0F208
:104210001002934218DD4F21C0F210018B4247DD9E
:104220005021C0F210018B4257D06021C0F2100122
:104230008B4252D070214BE01F2B41DC002B4CD025
:10424000102B4AD0CAE000BFB3F1101F3EDAB3F51D
:10425000005F00F08D80B3F5801F3ED0BEE000BF50
:10426000402B00F09980502B40F0B880D1F804E04A
:10427000C968DCF82030DCF8202022F00102CCF8FC
:104280002020DCF8182022F0F00242EA011123F08D
:104290000A0242EA0E02CCF81810CCF82020DCF812
:1042A00008104FF68872CFF6CF72114057311EE0DA
:1042B0003021C0F210018B420FD0402108E000BF36
:1042C000202B0AD0302B08D088E000BF05D0202159
:1042D000C0F210018B4240F08180DCF808104FF6EC
:1042E0008872CFF6CF721140194341F00701CCF824
:1042F00008100022012180F83D10002180F83C10B8
:10430000104680BDD1F804E0C968DCF8203023F005
:104310001003CCF82030DCF81830DCF8202023F42F
:10432000704322F0A00243EA013142EA0E12CCF8B7
:104330001810CCF82020DCF808104FF68872CFF661
:10434000CF7211406731D2E7D1E901E3C968DCF8E7
:10435000082043EA0E0322F47F4243EA012111437D
:10436000CCF80810DCF8081041F07701BFE700BF77
:10437000D1E901E3C968DCF8082043EA0E0322F41E
:104380007F4243EA01211143CCF80810DCF8081001
:1043900041F48041ABE700BFD1F804E0C968DCF824
:1043A0002030DCF8202022F00102CCF82020DCF8BC
:1043B000182022F0F00242EA011123F00A0242EA38
:1043C0000E02CCF81810CCF82020DCF808104FF6BC
:1043D0008872CFF6CF721140473188E7012289E712
:1043E00090F88010012904BF022070472421C0F8F2
:1043F000841002681168136823F00103136021F030
:1044000000530021416613602022C0F8842080F808
:104410008010084670470000B0B590F88020012A4F
:1044200004BF0220B0BD2422C0F884200268D0F866
:1044300064E0D2F800C01368BEF1000F23F001035E
:104440001360936823F0606341EA0301916019D01F
:104450009368916846F2BC3E490FC0F6000E46F2E2
:10446000C4351EF80140C0F60005695CC3F3426321
:10447000E400B4FBF1F11EF80340EB5CE500B5FB92
:10448000F3F301E001210123A0F86A102021A0F834
:104490006830C2F800C0C0F88410002180F8801095
:1044A0000846B0BDB0B590F88020012A04BF0220B4
:1044B000B0BD2422C0F884200268D0F864E0D2F8AD
:1044C00000C01368BEF1000F23F00103136093686E
:1044D00023F0604341EA0301916019D09368916829
:1044E00046F2BC3E490FC0F6000E46F2C4351EF837
:1044F0000140C0F60005695CC3F34263E400B4FB0D
:10450000F1F11EF80340EB5CE500B5FBF3F301E0CD
:1045100001210123A0F86A102021A0F86830C2F818
:1045200000C0C0F88410002180F880100846B0BD9B
:10453000B0B582B0B0B10446D0F8840028B90020EC
:1045400084F88000204600F059F82420C4F8840044
:104550002068016821F001010160204600F006FF9B
:10456000012803D1012002B0B0BD00BFA06A10B184
:10457000204600F087FE2068416821F490414160A8
:10458000816821F02A018160016841F00101016028
:104590000020C4F88C00FEF77DF9216805460A6802
:1045A00012070CD56FF07E4C20464FF4001100220C
:1045B0002B46CDF800C001F039F878B921680868B9
:1045C00040070FD56FF07E4C20464FF4800100224B
:1045D0002B46CDF800C001F029F818B1032002B035
:1045E000B0BD00BF2020C4F88400C4F888000020BB
:1045F000E06684F8800002B0B0BD000010B59AB04B
:104600000446684608304C21FBF742FF206843F619
:104610000001C4F20101884202D01AB010BD00BFEF
:1046200001200090002468460194FEF7B7FE0028A0
:1046300018BFFDF711F841F24C00C4F202004169C5
:1046400041F480414161416901F48041159115991E
:10465000016841F002010160006815A900F0020044
:1046600015901598C02015900220CDE9160407205A
:10467000199040F20040C4F600001894FEF72EF89E
:104680001AB010BD2DE9F04182B00446D0F8840084
:1046900020280BD10D4600294FF001005CD01746B1
:1046A000002A59D094F88000012803D1022002B0DA
:1046B000BDE8F081012084F880000020C4F88C005F
:1046C00021209846C4F88400FEF7E4F8A4F854705A
:1046D000A4F85670A1680746B1F5805F01D1206942
:1046E00010B12E46002500E00026002084F880004E
:1046F0000CE000BF35F8020B21686FF35F20886281
:104700000026B4F856000138A4F85600B4F8560054
:1047100080B12046802100223B46CDF8008000F089
:1047200085FF80B9002EE5D016F8010B216888625C
:10473000E7E700BF2046402100223B46CDF800803D
:1047400000F074FF20B1032002B0BDE8F08100BF8B
:104750002020C4F88400002002B0BDE8F0810000F1
:104760002DE9F04100687F2A00EBC114A04658F8FB
:10477000E4EF4FF0000158F82CCC00F32F80013A01
:104780003F2A00F24480DFE802F0213B422142420E
:10479000423B424242424242422142424242424221
:1047A0004242424242424242423B424242424242F0
:1047B00042424242424242424242424242424242D9
:1047C0004242424242424242422100BFD3E90112E8
:1047D000C4F8BC10C4F8C020002118E0B2F5007F76
:1047E00008DB0DD0B2F5006F0AD0B2F5806FEDD0C6
:1047F0000DE000BF802A03D0B2F5807FE6D006E04E
:10480000D3E90112C4F8C4101021C4F8C820D3E9B8
:104810000506D3E9034730431D683843FE22204391
:104820008A4028432EEA02028840082F42EA00020A
:1048300005D11CF4007008BF1CF0007004D0C8F84B
:104840000020BDE8F08100BFD86988400243C8F865
:104850000020BDE8F0810000FEE7000010B58CB03C
:1048600040F28000C2F2000000244FF0A04C4FF450
:1048700040320123042100F1280E0B94CDE90944B4
:10488000CDE90744CDE90544CDE90344CDE9014430
:10489000C0E900C2C0E90244C0E9044381618483E5
:1048A000016280F824304FF490624FF4806C8EE8FF
:1048B000061080F83830C46380F84040FDF792F964
:1048C000002818BFFCF7C8FE40F28000C2F20000CA
:1048D00009A90994FCF7C6FE002818BFFCF7BCFE26
:1048E0000220C0F23040019006207F21029000207B
:1048F000049104210390CDE9051040F28000C2F23A
:10490000000001A9FCF748FF002818BFFCF7A4FE2F
:104910000420C0F6600001900C20029040F280005C
:10492000C2F2000001A9FCF737FF002818BFFCF70E
:1049300093FE0820C0F6904001901220029040F2B1
:104940008000C2F2000001A9FCF726FF002818BF72
:10495000FCF782FE1020C1F2C000019018200290E6
:1049600040F28000C2F2000001A9FCF715FF002808
:1049700018BFFCF771FE0CB010BD000080B58CB004
:10498000684604302C21FBF783FD40F2EC0040F632
:104990000001C2F20000C5F200010160FDF77AFCDF
:1049A000002818BFFCF758FE022000210090CDE936
:1049B00004100120CDE9060140F2EC00ADF804102E
:1049C000CDE90211C2F2000069460022FDF774FB36
:1049D000002818BFFCF740FE0CB080BD80B582B047
:1049E00041F24800C4F202000168002241F00401D3
:1049F0000160016801F0040101910199016841F031
:104A0000010101600068002100F0010000900098A1
:104A10000B20FEF7E9FB0B20FEF7D2FB0C20002158
:104A20000022FEF7E1FB0C2002B0BDE88040FEF75B
:104A3000C7BB000070B586B0002541F24C0005955B
:104A4000C4F20200016840F6000441F00401016074
:104A50000168C4F6000401F00401009100990168A6
:104A6000002241F02001016001684FF4804601F00E
:104A7000200100910099016841F001010160016885
:104A800001F0010100910099016841F0020101600B
:104A900000684FF4804100F002000090009820462A
:104AA000FDF7F2FE0120CDE9020501A9204601969D
:104AB0000495FDF713FE06B070BD00002DE9F0412E
:104AC000BCB046F6000500241BA86021C4F2010515
:104AD000CDE93544CDE93344FBF7DAFC08A82421BD
:104AE000CDE91944CDE91744CDE91544CDE9134486
:104AF000CDE91144FBF7CCFC40F2C010C2F200003B
:104B0000CDE90644CDE90444CDE90244CDE90044B1
:104B1000C0E900548460FDF737FF002818BFFCF798
:104B20009BFD40F2C010C2F200000C21FDF7B8FE60
:104B3000002818BFFCF790FD40F2C010C2F2000040
:104B40000A21FDF7B3FF002818BFFCF785FD4DF2E1
:104B50007F4033900820369040F2C0100024C2F20B
:104B6000000033AA0621CDE93444FDF7D9FF00281F
:104B700018BFFCF771FD0120CDE91F044FF0006064
:104B8000CDE925044FF00050289040F2C010C2F249
:104B900000001BAA0621CDE91D44CDE91B44CDE947
:104BA0002144CDE9234427943294FEF7E9F8002804
:104BB00018BFFCF751FD6420189040F2C010C2F2FB
:104BC000000018AB06210122FDF7E2FF002818BF04
:104BD000FCF742FD40F2C010C2F2000018AB062103
:104BE0000222FDF7D5FF002818BFFCF735FDC820CD
:104BF000189040F2C010C2F2000018AB0621042247
:104C0000FDF7C6FF002818BFFCF726FD4FF496708D
:104C1000189040F2C010C2F2000018AB0621082222
:104C2000FDF7B6FF002818BFFCF716FD10203690E0
:104C300040F2C010C2F2000033AA00210024FDF7A8
:104C40006FFF002818BFFCF707FD40F2C010C2F24A
:104C5000000011AA0021119414941794FEF7FAF998
:104C6000002818BFFCF7F8FC00204FF48071CDE954
:104C70001B00CDE929002B90CDE92C102F9020208E
:104C800030904FF48020319040F2C010C2F200000A
:104C90001BAA0021FEF774F8002818BFFCF7DCFC03
:104CA0004020309040F2C010C2F200001BAA012147
:104CB000FEF766F8002818BFFCF7CEFC40F2C010E3
:104CC0000024C2F200001BAA0221CDE93044FEF705
:104CD00057F8002818BFFCF7BFFC40F2C010C2F222
:104CE00000001BAA03212D94FEF74AF8002818BFE4
:104CF000FCF7B2FC4FF6DF70189040F2C010C2F221
:104D0000000018AB002101220024FDF741FF00281C
:104D100018BFFCF7A1FC4FF40070CDE90A044FF076
:104D20000070CDE90E0440F2C010C2F2000008AAE3
:104D30000021CDE90844CDE90C441094FDF7DAFDDB
:104D4000002818BFFCF788FC40F2C010C2F2000037
:104D500008AA0121FDF7CEFD002818BFFCF77CFC56
:104D60000020CDE90900CDE90D0040F2C010C2F2EB
:104D7000000008AA0221FDF7BDFD002818BFFCF7BE
:104D80006BFC40F2C010C2F2000008AA0321FDF73C
:104D9000B1FD002818BFFCF75FFC022000904FF423
:104DA00080700190082002900020CDE90300CDE939
:104DB0000500079040F2C010C2F200006B460021CF
:104DC0000122FDF7A9FF002818BFFCF745FC4FF4AE
:104DD0000070019040F2C010C2F200006B46012149
:104DE0000422FDF799FF002818BFFCF735FC0020CE
:104DF000CDE90000029040F2C010C2F200006B4604
:104E000002211022FDF788FF002818BFFCF724FCC0
:104E100040F2C010C2F200006B4603214022FDF7B1
:104E20007BFF002818BFFCF717FC0220009040F21F
:104E3000C010C2F200006B4600210222FDF76CFF99
:104E4000002818BFFCF708FC40F2C010C2F20000B6
:104E50006B4601210822FDF75FFF002818BFFCF711
:104E6000FBFB0020009040F2C010C2F200006B4635
:104E700002212022FDF750FF002818BFFCF7ECFBB1
:104E800040F2C010C2F200006B4603218022FDF701
:104E900043FF002818BFFCF7DFFB40F2C010C2F24E
:104EA000000033AA0121FDF73BFE002818BFFCF7E4
:104EB000D3FB40F2C010C2F2000011AA0121FEF79C
:104EC000C9F8002818BFFCF7C7FB40F2C010C2F2B7
:104ED000000018AB01210122FDF75AFE002818BF7F
:104EE000FCF7BAFB0820369040F2C010C2F2000076
:104EF00033AA0221FDF714FE002818BFFCF7ACFB13
:104F000040F2C010C2F2000011AA0221FEF7A2F87E
:104F1000002818BFFCF7A0FB40F2C010C2F200004E
:104F200033AA0321FDF7FCFD002818BFFCF794FB12
:104F300040F2C014C2F2000411AA20460321FEF779
:104F400089F8002818BFFCF787FB2068A84203D027
:104F50003CB0BDE8F08100BF41F24C00C4F2020059
:104F6000016837AC41F00201016001684FF00208AE
:104F700001F00201379137990168002641F00101E3
:104F800001600068032700F00100379037984FF464
:104F90007040379040F200400D25C4F600002146D5
:104FA000CDF8E08039963A973B95FDF797FB4FF4A3
:104FB0007060CDE937084FF090402146CDE9396760
:104FC0003B95FDF78BFB3CB0BDE8F08180B588B028
:104FD00040F2BC200021C2F2000040F200424FF03B
:104FE000270C0791CDE905110291C4F20002A92313
:104FF000C0E9021C01618021C0E900238161FFF743
:1050000025F8002818BFFCF727FB4FF480500490C8
:1050100040F2BC20C2F2000004A9FFF7D1F800283A
:1050200018BFFCF719FB202001900020039040F2EC
:10503000BC20C2F2000001A9FEF798FF002818BFAB
:10504000FCF70AFB08B080BD10B584B040F2083010
:1050500041F20001C2F20000C4F200010024A922C2
:10506000272380E8160080210294C3608161FEF747
:10507000EDFF002818BFFCF7EFFA2020019040F266
:105080000830C2F2000001A90394FEF76FFF002868
:1050900018BFFCF7E1FA04B010BD000080B540F283
:1050A000543043F60001C2F20000C4F201010023B3
:1050B0004FF00C0C4FF4E13280E80E00C0E90333EE
:1050C000C0E905C3C0E90733C0E90933FFF730FA87
:1050D000002818BFFCF7C0FA40F25430C2F20000BA
:1050E0000021FFF7DFF9002818BFFCF7B5FA40F2FE
:1050F0005430C2F200000021FFF78EF9002818BFDB
:10510000FCF7AAFA40F25430C2F20000FFF768F947
:10511000002808BF80BDBDE88040FCF79DBA0000B4
:10512000FEE70000FEE70000704700007047000047
:10513000FDF7E0BF4EF68850CEF20000016841F462
:10514000700101607047000080B540F6FF330268CF
:10515000C4F2000343F2FF3C9842C4F2010C0BDDA1
:1051600060452FDC40F60043C4F20003984235D07E
:1051700042F600432EE000BFB0F1804F2ED040F247
:105180000043C4F20003984228D040F60003C4F262
:105190000003984222D0604526DC40F2FF73C4F23F
:1051A0000003984236DD40F60003C4F20003984243
:1051B00044D040F60043C4F2000398423ED042F689
:1051C000004337E045F20003C4F20103984205D0E2
:1051D00043F20043C4F201039842DCD14B6822F051
:1051E00070021A436045D8DD44F2FF33C4F2010374
:1051F000984217DD44F20043C4F2010398421DD0E7
:1052000045F20003C4F20103984217D044F60003AC
:1052100010E000BFB0F1804F10D040F20043C4F264
:10522000000309E043F20043C4F20103984205D0B1
:1052300044F20003C4F20103984203D1CB6822F484
:1052400040721A434B6922F0800E8A6843EA0E03CB
:10525000D1F800C00360C262A0F18042A2F596328C
:105260004FEAB222092AC0F828C008D8012303FA5D
:1052700002F240F2E5231A421CBF096901630121D1
:10528000416180BD80B5816ACA070DD18A0716D4F5
:105290004A071FD40A0728D4CA0631D48A063AD44A
:1052A0004A0658D542E000BF0268D0F82CC05368C7
:1052B00023F4003343EA0C0353608A07E8D50268FD
:1052C000D0F830C0536823F4803343EA0C035360B2
:1052D0004A07DFD50268D0F834C0536823F480232E
:1052E00043EA0C0353600A07D6D50268D0F838C0E9
:1052F000536823F4004343EA0C035360CA06CDD538
:105300000268D0F83CC0936823F4805343EA0C034E
:1053100093608A06C4D50268D0F840C0936823F42D
:10532000005343EA0C0393604A0614D50268D0F890
:1053300044C05368BCF5801F23F4801343EA0C0378
:10534000536008D1D2F804C0D0F848E02CF4C00370
:1053500043EA0E035360090658BF80BD0168C06C64
:105360004A6822F400221043486080BD70B50546AB
:1053700005F108041ECC0068194341EA0403EE69F4
:10538000046846F6F311CCF6FF712140194331430E
:105390000160416848F2000C21F440511143416022
:1053A000AA69C4F2000C60451CBF296A0A438168DF
:1053B0004FF2FF43C1F2FF13194011438160C16AEC
:1053C000D5F824E021F00F0141EA0E01C16244F654
:1053D000FF71C4F2000188424FF0100318DC44F260
:1053E0000041C4F20001884228D044F60001C4F212
:1053F000000188422AD044F60041C4F200018842EC
:1054000042D141F28801C4F2020109688B0933E0FC
:1054100045F20001C4F2000188421FD0604525D04A
:1054200043F60001C4F2010188422DD141F2880106
:10543000C4F202010B6879A222E000BF41F28801A8
:10544000C4F2020109688B0816E000BF41F288012E
:10545000C4F2020109680B090EE000BF41F28801A5
:10546000C4F2020109680B0A06E000BF41F288019C
:10547000C4F2020109688B0A46F2AC32C0F600029F
:1054800003F0030152F82130604542F20040C0F2BF
:10549000F40015D0B6F5004F24D1082B4FF00101D0
:1054A00000F2B380DFE803F0065E6CB164B1B1B125
:1054B0006A0000BFFEF76EFA002856D15CE000BF1C
:1054C000082B4FF0010100F2A080DFE803F0059EF9
:1054D000259E1D9E9E9E2300FEF75CFAC0B1D5F866
:1054E00024E019E0082B4FF0010100F28E80DFE884
:1054F00003F00565738C6B8C8C8C7100FEF74AFA97
:1055000000285ED164E000BFFEF770FA0028E6D103
:1055100000217AE04FF4004046F29431C0F60001D9
:1055200031F81E106A68B0FBF1F002EB42018842CC
:105530004FF0010169D31303984266D8010E0002AF
:1055400010EB520041F100010023FAF70BFF4FF678
:105550000052A0F54071C0F20F0291424FD30121D9
:1055600053E000BFFEF72CFA30B1D5F824E007E095
:10557000FEF73CFA0028F8D1002146E04FF4004045
:1055800046F29431C0F6000131F81E106A68B0FB93
:10559000F1F0510801EB4000B0FBF2F04FF6EF7272
:1055A000A0F11001914207D84FF6F0710140C0F30D
:1055B0004200084423E000BF012126E0FEF700FA84
:1055C00030B1D5F824E007E0FEF710FA0028F8D152
:1055D00000211AE04FF4004046F29431C0F6000179
:1055E00031F81E104FF6EF72B0FBF1F0696800EB76
:1055F0005100B0FBF1F0A0F11001914204D82968EC
:10560000C860002101E000BF01214FF00110A86631
:10561000002208462A676A6770BD00BF01000000CB
:105620000400000002000000080000002DE9F04125
:10563000044600681546C2690E461140891BB1FA3E
:1056400081F14909A94240F0A080DDF81880B8F145
:10565000000F29D018F1010140F08080C16931406C
:10566000891BB1FA81F14909A94240F08E80C169D4
:105670003140891BB1FA81F14909A94240F0858086
:10568000C1693140891BB1FA81F14909A9427CD134
:10569000C1693140891BB1FA81F14909A942DDD0C4
:1056A0000020BDE8F08100BFFDF7F4F8206850E865
:1056B000000F216820F4D07041E80002BAB32068DE
:1056C00050E8000F216820F4D07041E8000272B366
:1056D000206850E8000F216820F4D07041E80002F3
:1056E0002AB3206850E8000F216820F4D07041E808
:1056F0000002002ADAD11AE0206850E8020F21687F
:1057000020F0010041E80202DAB1206850E8020FFF
:10571000216820F0010041E8020292B1206850E8BF
:10572000020F216820F0010041E802024AB120681E
:1057300050E8020F216820F0010041E80202002A2F
:10574000DAD12020C4F8840004F18800202101600F
:10575000002084F880000320BDE8F0811F4600BFD0
:10576000FDF798F8C01B4045A0D82068016849079C
:1057700044BFC1695FEA01510AD4C0693040801B4F
:10578000B0FA80F04009A842EAD00020BDE8F081DC
:105790004FF40061016200BF206850E8000F2168EB
:1057A00020F4D07041E80002BAB3206850E8000F3E
:1057B000216820F4D07041E8000272B3206850E8FC
:1057C000000F216820F4D07041E800022AB320685D
:1057D00050E8000F216820F4D07041E80002002A50
:1057E000DAD11AE0206850E8020F216820F00100A9
:1057F00041E80202DAB1206850E8020F216820F087
:10580000010041E8020292B1206850E8020F2168CD
:1058100020F0010041E802024AB1206850E8020F7E
:10582000216820F0010041E80202002ADAD120209C
:10583000C4F88400C4F8880004F18C0086E70000F6
:1058400082B070B5A2B08C4601AD0446CDE92623E6
:1058500026AB2846802162462193FAF7FBFD0646D7
:1058600082B2204629464FF0FF33FEF70BFF304649
:1058700022B0BDE8704002B070470000FEE70000B3
:1058800094B0FDF745FC002400200C94CDE90A44B7
:10589000CDE90844FDF7E4FC012006904FF4803088
:1058A00007900220032555210D90CDE90E50CDE93A
:1058B0001010CDE9120006A8FEF7D8F820B1EFF3DA
:1058C000108072B6FEE700BF0F20CDE9010501A8E8
:1058D0000421CDE903440594FDF7CCFE20B1EFF39C
:1058E000108072B6FEE700BFFFF7A4F8FFF776F866
:1058F000FEF7B4FFFFF742F8FFF768FBFFF7A4FBE2
:10590000FFF7DCF8FFF7CAFB40F25434C2F20004A0
:1059100033A12046FFF794FF4FF47A70FCF7CAFEDC
:1059200040F2BC20C2F20000FEF7F0FB40F270062D
:10593000C2F2000640F28000311DC2F200000422D3
:10594000FCF7F8FA40F2EC00C2F200000021FCF78C
:1059500023FD40F2C015C2F200052868D0F894007B
:1059600030600120FCF7A6FE28464FF40031FDF719
:10597000BFF92868B6EE008A90ED250A4FF4802121
:10598000B8EE400A20EE080ABDEEC00A80ED270AF4
:105990002846FDF7ADF928464FF48031FDF7A8F908
:1059A00028460F21FDF7D6F928684FF4804190ED85
:1059B000450A0022B8EE400A20EE080ABDEEC00AF1
:1059C00080ED470A40F60000C4F60000FCF75CFFDB
:1059D0000BA500BF20462946FFF732FFFAE700BFBC
:1059E0003D3D3D204D43552050657269706865729C
:1059F000616C207475726E206F6E203D3D3D0A0013
:105A00003D3D3D204D435520776F726B696E672099
:105A10003D3D3D0A000000005FEA400C08BF91F0E8
:105A2000000F4FEA8C234FEAC12243EA51514FEA5B
:105A30001C5018BF00F5F0404FEA300018BF41F08D
:105A400000415FEA6C5C00F02980BCF1FF3F08BFB9
:105A500040F080407047130C06BF12044FF0100C4A
:105A60004FF0000C130E04BF12020CF1080C130FC0
:105A700004BF12010CF1040C930F04BF92000CF14F
:105A8000020CD30F04BF52000CF1010C11464FF071
:105A90000002A0F11F00A0EB0C00704711F0004FB6
:105AA00008BF704731F000413FF4D5AF0B0C06BF83
:105AB00009044FF0100C4FF0000C0B0E04BF09024C
:105AC0000CF1080C0B0F04BF09010CF1040C8B0F37
:105AD00004BF89000CF1020CCB0F04BF49000CF18C
